218DT00005448520171130000106041CNM861318613ZZZ, Julie                         20160106    2016050220170106-0000000426300+0000000000000+2000000-0000000085260-0000000341040P  0000000000                                                                                                                     
218DT00005448520171130000107041CNM938219382JBHGVCRFC, Theodora                20160815    2016081520170815-0000000050000+0000000000000+2000000-0000000010000-0000000040000P  0000000000                                                                                                                     
218DT00005448520171130000106041CNM924419244NNN, United                        20151104    2016110420161104+0000001223800+0000000000000+2000000+0000000244760+0000000979040P  0000000000                                                                                                                     
218DT00005448520171130000106041CNM890418904NJNKGDRFJUHKNMNBG, Jenna L.        20151117    2016121720161217+0000000324600+0000000000000+2000000+0000000064920+0000000259680P  0000000000                                                                                                                     
218DT00005448520171130000106041CNM705217052KKK, Midwifery                     20160302    2016122020170302+0000000183000+0000000000000+2000000+0000000036600+0000000146400P  0000000000                                                                                                                     
218DT00005448520171130000108041CNM942819428JHJGHGFDFD, Valerie                20161001    2016122920171001-0000000281500+0000000000000+2000000-0000000056300-0000000225200P  0000000000                                                                                                                     
218DT00005448520171130000106041CNM640716407NMITVBNBCG, Womancare              20160930    2016123120170930-0000001345700+0000000000000+2000000-0000000269140-0000001076560P  0000000000                                                                                                                     
218DT00005448520171130000101041CNM952219522DRFGHBJHN, Aimee                   20170101    2017010120180101+0000000413400+0000000000000+2000000+0000000082680+0000000330720P  0000000000                                                                                                                     
218DT00005448520171130000102041CNM805118051FDSYRECVIN, Eng Mee Moong          20170101    2017010120180101+0000000765800+0000000000000+2000000+0000000153160+0000000612640P  0000000000                                                                                                                     
218DT00005448520171130000101041CNM952319523YYY, Asmara                        20170101    2017010120180101+0000000050000+0000000000000+2000000+0000000010000+0000000040000P  0000000000                                                                                                                     
218DT00005448520171130000108041CNM686516865HGFJHGKF, Simmonds                 20160207    2017010120170207-0000002189900+0000000000000+2000000-0000000437980-0000001751920P  0000000000                                                                                                                     
218DT00005448520171130000102041CNM923319233HGJHKJKOUG, Tasha L.               20170101    2017010120180101+0000000596400+0000000000000+2000000+0000000119280+0000000477120P  0000000000                                                                                                                     
218DT00005448520171130000108041CNM697016970JJJ, Midwifery                     20160801    2017010120170801-0000003232000+0000000000000+2000000-0000000646400-0000002585600P  0000000000                                                                                                                     
218DT00005448520171130000106041CNM655416554KLKLJKHJHIUIOUOIPK, Midwifery      20170101    2017010120180101+0000002461600+0000000000000+2000000+0000000492320+0000001969280P  0000000000                                                                                                                     
218DT00005448520171130000108041CNM941819418PQR, Ana                           20161001    2017010320171001-0000000006700+0000000000000+2000000-0000000001340-0000000005360P  0000000000                                                                                                                     
218DT00005448520171130000108041CNM628716287TRRTEYYTIU, Lisa                   20160812    2017010620170812-0000003833300+0000000000000+2000000-0000000766660-0000003066640P  0000000000                                                                                                                     
218DT00005448520171130000106041CNM628716287TRRTEYYTIU, Lisa                   20160812    2017010620170106+0000008194400+0000000000000+2000000+0000001638880+0000006555520P  0000000000                                                                                                                     
218DT00005448520171130000108041CNM801718017GGG, Brooke A.                     20161101    2017010720171101-0000003415800+0000000000000+2000000-0000000683160-0000002732640P  0000000000                                                                                                                     
218DT00005448520171130000106041CNM801718017GGG, Brooke A.                     20161101    2017010720170107+0000005344500+0000000000000+2000000+0000001068900+0000004275600P  0000000000                                                                                                                     
218DT00005448520171130000106041CNM625016250CCC, Ob/Gyn                        20160710    2017011120170710+0000000670800+0000000000000+2000000+0000000134160+0000000536640P  0000000000                                                                                                                     
218DT00005448520171130000108041CNM896018960XXX, Pavilion                      20160919    2017011120170919-0000000365400+0000000000000+2000000-0000000073080-0000000292320P  0000000000                                                                                                                     
218DT00005448520171130000101041CNM952719527BBB, Stand                         20170112    2017011220180112+0000000579000+0000000000000+2000000+0000000115800+0000000463200P  0000000000                                                                                                                     
218DT00005448520171130000102041CNM667716677FDKMN HGFK, Gail B.                20170113    2017011320180113+0000003857500+0000000000000+2000000+0000000771500+0000003086000P  0000000000                                                                                                                     
218DT00005448520171130000106041CNM817718177FFRVCDRGVBV, Osei-Kwakye           20160604    2017011720170604+0000000204400+0000000000000+2000000+0000000040880+0000000163520P  0000000000                                                                                                                     
218DT00005448520171130000106041CNM694616946WWW, North                         20160801    2017011820170801+0000000906500+0000000000000+2000000+0000000181300+0000000725200P  0000000000                                                                                                                     
218DT00005448520171130000108041CNM937219372ABC, Adriana M.                    20160815    2017011820170815-0000000198800+0000000000000+2000000-0000000039760-0000000159040P  0000000000                                                                                                                     
218DT00005448520171130000106041CNM873418734POPOPOPOPOP, Koolau                20160130    2017011920170130+0000000007500+0000000000000+2000000+0000000001500+0000000006000P  0000000000                                                                                                                     
218DT00005448520171130000106041CNM694616946WWW, North                         20160801    2017011920170801-0000000031500+0000000000000+2000000-0000000006300-0000000025200P  0000000000                                                                                                                     
218DT00005448520171130000101041CNM953119531III, Clarissa                      20170120    2017012020180120+0000000226000+0000000000000+2000000+0000000045200+0000000180800P  0000000000                                                                                                                     
218DT00005448520171130000102041CNM710117101QQQ, Martha M.                     20170123    2017012320180123+0000000783300+0000000000000+2000000+0000000156660+0000000626640P  0000000000                                                                                                                     
218DT00005448520171130000101041CNM952419524MKMLKHGHGF, Elaine I.              20170123    2017012320180123+0000000314700+0000000000000+2000000+0000000062940+0000000251760P  0000000000                                                                                                                     
218DT00005448520171130000102041CNM863218632DEF, Jennifer                      20170123    2017012320180123+0000002621800+0000000000000+2000000+0000000524360+0000002097440P  0000000000                                                                                                                     
218DT00005448520171130000102041CNM896218962JKL, Risa L.                       20170125    2017012520180125+0000001655200+0000000000000+2000000+0000000331040+0000001324160P  0000000000                                                                                                                     
218DT00005448520171130000101041CNM953819538KJHJFGDVBVB N, Kimberly            20170125    2017012520180125+0000000050000+0000000000000+2000000+0000000010000+0000000040000P  0000000000                                                                                                                     
218DT00005448520171130000102041CNM896418964HGFIFYUKVJ, Christina A.           20170128    2017012820180128+0000000765400+0000000000000+2000000+0000000153080+0000000612320P  0000000000                                                                                                                     
218DT00005448520171130000102041CNM873418734POPOPOPOPOP, Koolau                20170130    2017013020180130+0000004666200+0000000000000+2000000+0000000933240+0000003732960P  0000000000                                                                                                                     
218DT00005448520171130000102041CNM924619246NINUBJH, Central                   20170130    2017013020180130+0000003540900+0000000000000+2000000+0000000708180+0000002832720P  0000000000                                                                                                                     
218DT00005448520171130000106041CNM873418734POPOPOPOPOP, Koolau                20170130    2017013020180130+0000000271200+0000000000000+2000000+0000000054240+0000000216960P  0000000000                                                                                                                     
218DT00005448520171130000102041CNM711017110PPP, Rachel A.                     20170201    2017020120180201+0000000301500+0000000000000+2000000+0000000060300+0000000241200P  0000000000                                                                                                                     
218DT00005448520171130000102041CNM897018970MNJHBH, Barbara                    20170201    2017020120180201+0000001657300+0000000000000+2000000+0000000331460+0000001325840P  0000000000                                                                                                                     
218DT00005448520171130000102041CNM896518965POOUITRFBVMJ, Zhaleh               20170202    2017020220180202+0000000688800+0000000000000+2000000+0000000137760+0000000551040P  0000000000                                                                                                                     
218DT00005448520171130000102041CNM826218262EEE, The                           20170203    2017020320180203+0000002121700+0000000000000+2000000+0000000424340+0000001697360P  0000000000                                                                                                                     
218DT00005448520171130000101041CNM953319533RDNKOPKKJGBVCFDR, Nina             20170206    2017020620170806+0000000150000+0000000000000+2000000+0000000030000+0000000120000P  0000000000                                                                                                                     
218DT00005448520171130000101041CNM953419534KLHFDDT, Kristi                    20170206    2017020620180206+0000000050000+0000000000000+2000000+0000000010000+0000000040000P  0000000000                                                                                                                     
218DT00005448520171130000102041CNM925019250YZA, Jacqueline L.                 20170208    2017020820180208+0000000534600+0000000000000+2000000+0000000106920+0000000427680P  0000000000                                                                                                                     
218DT00005448520171130000102041CNM924819248STU, Beth C.                       20170211    2017021120180211+0000000330000+0000000000000+2000000+0000000066000+0000000264000P  0000000000                                                                                                                     
218DT00005448520171130000106041CNM897018970OUIYUYRY, Barbara                  20170201    2017021320180201+0000000995500+0000000000000+2000000+0000000199100+0000000796400P  0000000000                                                                                                                     
218DT00005448520171130000106041CNM853218532OIOUKJMNHH, Chena                  20161102    2017021320171102-0000001427900+0000000000000+2000000-0000000285580-0000001142320P  0000000000                                                                                                                     
218DT00005448520171130000102041CNM925119251MMM, Gladys                        20170214    2017021420180214+0000000330000+0000000000000+2000000+0000000066000+0000000264000P  0000000000                                                                                                                     
218DT00005448520171130000106041CNM649916499PLOJKMN MBNUGTGCH, Park            20160217    2017021720170517+0000005308700+0000000000000+2000000+0000001061740+0000004246960P  0000000000                                                                                                                     
218DT00005448520171130000106041CNM916019160LLL, Sadiah                        20161015    2017022020171015+0000000090100+0000000000000+2000000+0000000018020+0000000072080P  0000000000                                                                                                                     
218DT00005448520171130000106041CNM649916499PLOJKMN MBNUGTGCH, Park            20160217    2017022120170517-0000000846500+0000000000000+2000000-0000000169300-0000000677200P  0000000000                                                                                                                     
218DT00005448520171130000101041CNM952919529UUU, Tania                         20170222    2017022220180222+0000000050000+0000000000000+2000000+0000000010000+0000000040000P  0000000000                                                                                                                     
218DT00005448520171130000106041CNM914419144RRR, Jackie                        20151112    2017022220170331+0000000005100+0000000000000+2000000+0000000001020+0000000004080P  0000000000                                                                                                                     
218DT00005448520171130000101041CNM953919539GHI, Caryne                        20170222    2017022220180222+0000000050000+0000000000000+2000000+0000000010000+0000000040000P  0000000000                                                                                                                     
218DT00005448520171130000106041CNM915619156FFF, Isamar                        20151109    2017022220170326+0000000004400+0000000000000+2000000+0000000000880+0000000003520P  0000000000                                                                                                                     
218DT00005448520171130000102041CNM607516075WAWWZWWZEDX, Susan                 20170223    2017022320180223+0000000366500+0000000000000+2000000+0000000073300+0000000293200P  0000000000                                                                                                                     
218DT00005448520171130000108041CNM896418964HGFIFYUKVJ, Christina A.           20170128    2017022320180128-0000000639900+0000000000000+2000000-0000000127980-0000000511920P  0000000000                                                                                                                     
218DT00005448520171130000102041CNM865118651ESESESESESESE, Integrated          20170224    2017022420180224+0000004851800+0000000000000+2000000+0000000970360+0000003881440P  0000000000                                                                                                                     
218DT00005448520171130000102041CNM670816708OOO, Carol J.                      20170225    2017022520180225+0000000863800+0000000000000+2000000+0000000172760+0000000691040P  0000000000                                                                                                                     
218DT00005448520171130000108041CNM935919359TTT, Diane K.                      20160809    2017022520170809-0000000022600+0000000000000+2000000-0000000004520-0000000018080P  0000000000                                                                                                                     
218DT00005448520171130000101041CNM952119521DFRDFTFGYHJ, Laure                 20170228    2017022820180228+0000000050000+0000000000000+2000000+0000000010000+0000000040000P  0000000000                                                                                                                     
218DT00005448520171130000102041CNM808618086LOIJHYGBNM, Rebecca J.             20170301    2017030120180301+0000002517900+0000000000000+2000000+0000000503580+0000002014320P  0000000000                                                                                                                     
218DT00005448520171130000102041CNM705217052KKK, Midwifery                     20170302    2017030220180302+0000005426700+0000000000000+2000000+0000001085340+0000004341360P  0000000000                                                                                                                     
218DT00005448520171130000102041CNM803618036XCHGVKJLN, WomanKind               20170302    2017030220180302+0000003320900+0000000000000+2000000+0000000664180+0000002656720P  0000000000                                                                                                                     
218DT00005448520171130000102041CNM677416774HKHKJVNHLGBN, Birth                20170305    2017030520180305+0000004996100+0000000000000+2000000+0000000999220+0000003996880P  0000000000                                                                                                                     
218DT00005448520171130000106041CNM677416774HKHKJVNHLGBN, Birth                20170305    2017030520180305-0000000146000+0000000000000+2000000-0000000029200-0000000116800P  0000000000                                                                                                                     
218DT00005448520171130000101041CNM954719547HGKJHJV, Dahlma                    20170306    2017030620180306+0000000259600+0000000000000+2000000+0000000051920+0000000207680P  0000000000                                                                                                                     
218DT00005448520171130000102041CNM677916779VVV, Nadine F.                     20170307    2017030720180307+0000001009700+0000000000000+2000000+0000000201940+0000000807760P  0000000000                                                                                                                     
218DT00005448520171130000102041CNM835718357JHGJHGMJH, Linda S.                20170310    2017031020180310+0000000451600+0000000000000+2000000+0000000090320+0000000361280P  0000000000                                                                                                                     
218DT00005448520171130000101041CNM954419544VWX, Ellen L.                      20170315    2017031520180315+0000000443700+0000000000000+2000000+0000000088740+0000000354960P  0000000000                                                                                                                     
218DT00005448520171130000102041CNM734517345HHH, Mary Gail                     20170316    2017031620180316+0000000203300+0000000000000+2000000+0000000040660+0000000162640P  0000000000                                                                                                                     
218DT00005448520171130000102041CNM926919269DDD, Stephanie J.                  20170327    2017032720180327+0000000422800+0000000000000+2000000+0000000084560+0000000338240P  0000000000                                                                                                                     
218DT00005448520171130000102041CNM712817128MNO, Mary E.                       20170331    2017033120180331+0000000758200+0000000000000+2000000+0000000151640+0000000606560P  0000000000                                                                                                                     
218DT00005448520171130000102041CNM839818398SSS, Roxanne                       20170401    2017040120180401+0000001048900+0000000000000+2000000+0000000209780+0000000839120P  0000000000                                                                                                                     
218DT00005448520171130000102041CNM793117931AAA, Pregnancy                     20170414    2017041420180414+0000001065700+0000000000000+2000000+0000000213140+0000000852560P  0000000000                                                                                                                     
218DT00005448520171130000102041CNM679816798RDUIJPPPOIIUYTTR, Lisa J.          20170415    2017041520180415+0000000600900+0000000000000+2000000+0000000120180+0000000480720P  0000000000                                                                                                                     
218DT00005448520171130000102041CNM760517605TYTYTTRETRTTU, Jane M.             20170416    2017041620180416+0000000195500+0000000000000+2000000+0000000039100+0000000156400P  0000000000                                                                                                                     
218DT00005448520171130000102041CNM759217592WARFRGVHBKIMO, Luann L.            20170430    2017043020180430+0000000493000+0000000000000+2000000+0000000098600+0000000394400P  0000000000                                                                                                                     
218TR000054485066201711300001057+0000064232400+0000000000000+0000012846480+0000051385920000079                                                                                                                                                                                                              
218GT000054485066201711300001057+0000064232400+0000000000000+0000012846480+0000051385920000079                                                                                                                                                                                                              
