0220000544852017307035253PCIS8613186130000000000000100041000000000000000000002016010620170106Julie ZZZ                          123 Any Street                     Brooklyn          NY11215    000000000-0000000426300+0000000000000+0000000000000+0000000000000A57                                                                                                      02                                                                                                                                                    NYEX-782761                                                                             
0220000544852017307035253LCIS86131861300000000000001005999123 Any Street                     Brooklyn          NY11215    EX-782761      NY000000000Israel Teitelbaum                  11301 Amherst Avenue, Suite 201    Silver Spring     MD                                                                                                                                                                                                                                                                                                                                                                          
0220000544852017307035253CCIS86131861300000000000001001CCB 659201605022017010606-00000004263002000000+0000000000000+0000000000000+0000000000000001000000003000000000000000000000000C00000000201401062901162Y 90                    0659  0000000                         112151                                                                                                                                                                                                                                                                                                                                         
0220000544852017307035253PCIS9382193820000000000000100041000000000000000000002016081520170815Theodora JBHGVCRFC                 123 Any Street                     Canton            MI48187    000000000-0000000050000+0000000000000+0000000000000+0000000000000A57                                                                                                      02                                                                                                                                                    MI133643244                                                                             
0220000544852017307035253LCIS93821938200000000000001000999123 Any Street                     Canton            MI48187    133643244      MI000000000Israel Teitelbaum                  11301 Amherst Avenue, Suite 201    Silver Spring     MD                                                                                                                                                                                                                                                                                                                                                                          
0220000544852017307035253CCIS93821938200000000000001001CNM 659201608152017081507-00000000500002000000+0000000000000+0000000000000+0000000000000001000000003000000000000000000000000C00000000201608152908162Y 90                    0659  0000000                         481871                                                                                                                                                                                                                                                                                                                                         
0220000544852017307035253PCIS9244192440000000000000100041000000000000000000002015110420161104United NNN                         123 Any Street                     Norwich           CT06360    000000000+0000001223800+0000000000000+0000000000000+0000000000000A57                                                                                                      02                                                                                                                                                    CT002239748                                                                             
0220000544852017307035253LCIS92441924400000000000001000233123 Any Street                     Norwich           CT06360    002239748      CT000000000Israel Teitelbaum                  11301 Amherst Avenue, Suite 201    Silver Spring     MD                                                                                                                                                                                                                                                                                                                                                                          
0220000544852017307035253CCIS92441924400000000000001001CNM 659201611042016110406+00000012238002000000+0000000000000+0000000000000+0000000000000001000000003000000000000000000000000C00000000201309112911152Y 90                    0659  0000000                         063601                                                                                                                                                                                                                                                                                                                                         
0220000544852017307035253PCIS8904189040000000000000100041000000000000000000002015111720161217Jenna L. NJNKGDRFJUHKNMNBG         123 Any Street                     Kingston          NY12401    000000000+0000000324600+0000000000000+0000000000000+0000000000000A57                                                                                                      02                                                                                                                                                    NYEX-782761                                                                             
0220000544852017307035253LCIS89041890400000000000001005999123 Any Street                     Kingston          NY12401    EX-782761      NY000000000Israel Teitelbaum                  11301 Amherst Avenue, Suite 201    Silver Spring     MD                                                                                                                                                                                                                                                                                                                                                                          
0220000544852017307035253CCIS89041890400000000000001001CNB 659201612172016121706+00000003246002000000+0000000000000+0000000000000+0000000000000001000000003000000000000000000000000C00000000201411172911152Y 90                    0659  0000000                         124011                                                                                                                                                                                                                                                                                                                                         
0220000544852017307035253PCIS7052170520000000000000101041000000000000000000002016030220170302Midwifery KKK                      123 Any Street                     Monsey            NY10952    000000000+0000000183000+0000000000000+0000000000000+0000000000000A57                                                                                                      02                                                                                                                                                    NYEX-782761                                                                             
0220000544852017307035253LCIS70521705200000000000001005999123 Any Street                     Monsey            NY10952    EX-782761      NY000000000Israel Teitelbaum                  11301 Amherst Avenue, Suite 201    Silver Spring     MD                                                                                                                                                                                                                                                                                                                                                                          
0220000544852017307035253CCIS70521705200000000000001001CNM 659201612202017030206+00000001830002000000+0000000000000+0000000000000+0000000000000001000000003000000000000000000000000C00000000200712032903162Y 90                    0659  0000000                         109521                                                                                                                                                                                                                                                                                                                                         
0220000544852017307035253PCIS9428194280000000000000100041000000000000000000002016100120171001Valerie JHJGHGFDFD                 123 Any Street                     Imperial          CA92251    000000000-0000000281500+0000000000000+0000000000000+0000000000000A57                                                                                                      02                                                                                                                                                    CA0C46079                                                                               
0220000544852017307035253LCIS94281942800000000000001000999123 Any Street                     Imperial          CA92251    0C46079        CA000000000Israel Teitelbaum                  11301 Amherst Avenue, Suite 201    Silver Spring     MD                                                                                                                                                                                                                                                                                                                                                                          
0220000544852017307035253CCIS94281942800000000000001001CNM 659201612292017100108-00000002815002000000+0000000000000+0000000000000+0000000000000001000000003000000000000000000000000C00000000201610012910162Y 90                    0659  0000000                         922511                                                                                                                                                                                                                                                                                                                                         
0220000544852017307035253PCIS6407164070000000000000100041000000000000000000002016093020170930Womancare NMITVBNBCG               123 Any Street                     Ft. Collins       CO80524    000000000-0000001345700+0000000000000+0000000000000+0000000000000A57                                                                                                      02                                                                                                                                                    CO82170                                                                                 
0220000544852017307035253LCIS64071640700000000000001000999123 Any Street                     Ft. Collins       CO80524    82170          CO000000000Israel Teitelbaum                  11301 Amherst Avenue, Suite 201    Silver Spring     MD                                                                                                                                                                                                                                                                                                                                                                          
0220000544852017307035253CCIS64071640700000000000001001CNM 659201612312017093006-00000013457002000000+0000000000000+0000000000000+0000000000000001000000003000000000000000000000000C00000000198609302909162Y 90                    0659  0000000                         805241                                                                                                                                                                                                                                                                                                                                         
0220000544852017307035253PCIS9522195220000000000000100041000000000000000000002017010120180101Aimee DRFGHBJHN                    123 Any Street                     Berkeley          CA94705    000000000+0000000413400+0000000000000+0000000000000+0000000000000A57                                                                                                      02                                                                                                                                                    CA0C46079                                                                               
0220000544852017307035253LCIS95221952200000000000001000999123 Any Street                     Berkeley          CA94705    0C46079        CA000000000Israel Teitelbaum                  11301 Amherst Avenue, Suite 201    Silver Spring     MD                                                                                                                                                                                                                                                                                                                                                                          
0220000544852017307035253CCIS95221952200000000000001001CNM 659201701012018010101+00000004134002000000+0000000000000+0000000000000+0000000000000001000000003000000000000000000000000C00000000201701012901172Y 90                    0659  0000000                         947051                                                                                                                                                                                                                                                                                                                                         
0220000544852017307035253PCIS8051180510000000000000101041000000000000000000002017010120180101Eng Mee Moong FDSYRECVIN           123 Any Street                     New York          NY10002    000000000+0000000765800+0000000000000+0000000000000+0000000000000A57                                                                                                      02                                                                                                                                                    NYEX-782761                                                                             
0220000544852017307035253LCIS80511805100000000000001006081123 Any Street                     New York          NY10002    EX-782761      NY000000000Israel Teitelbaum                  11301 Amherst Avenue, Suite 201    Silver Spring     MD                                                                                                                                                                                                                                                                                                                                                                          
0220000544852017307035253CCIS80511805100000000000001001CNM 659201701012018010102+00000007658002000000+0000000000000+0000000000000+0000000000000001000000003000000000000000000000000C00000000201201012901172Y 90                    0659  0000000                         100021                                                                                                                                                                                                                                                                                                                                         
0220000544852017307035253PCIS9523195230000000000000100041000000000000000000002017010120180101Asmara YYY                         123 Any Street                     San Francisco     CA94143    000000000+0000000050000+0000000000000+0000000000000+0000000000000A57                                                                                                      02                                                                                                                                                    CA0C46079                                                                               
0220000544852017307035253LCIS95231952300000000000001000999123 Any Street                     San Francisco     CA94143    0C46079        CA000000000Israel Teitelbaum                  11301 Amherst Avenue, Suite 201    Silver Spring     MD                                                                                                                                                                                                                                                                                                                                                                          
0220000544852017307035253CCIS95231952300000000000001001CNM 659201701012018010101+00000000500002000000+0000000000000+0000000000000+0000000000000001000000003000000000000000000000000C00000000201701012901172Y 90                    0659  0000000                         941431                                                                                                                                                                                                                                                                                                                                         
0220000544852017307035253PCIS6865168650000000000000100041000000000000000000002016020720170207Simmonds HGFJHGKF                  123 Any Street                     Damascus          MD20872    000000000-0000002189900+0000000000000+0000000000000+0000000000000A57                                                                                                      02                                                                                                                                                    MD23374                                                                                 
0220000544852017307035253LCIS68651686500000000000001000999123 Any Street                     Damascus          MD20872    23374          MD000000000Israel Teitelbaum                  11301 Amherst Avenue, Suite 201    Silver Spring     MD                                                                                                                                                                                                                                                                                                                                                                          
0220000544852017307035253CCIS68651686500000000000001001CNM 659201701012017020708-00000021899002000000+0000000000000+0000000000000+0000000000000001000000003000000000000000000000000C00000000200702072902162Y 90                    0659  0000000                         208721                                                                                                                                                                                                                                                                                                                                         
0220000544852017307035253PCIS9233192330000000000000101041000000000000000000002017010120180101Tasha L. HGJHKJKOUG                123 Any Street                     Madison Heights   MI48071    000000000+0000000596400+0000000000000+0000000000000+0000000000000A57                                                                                                      02                                                                                                                                                    MI133643244                                                                             
0220000544852017307035253LCIS92331923300000000000001000999123 Any Street                     Madison Heights   MI48071    133643244      MI000000000Israel Teitelbaum                  11301 Amherst Avenue, Suite 201    Silver Spring     MD                                                                                                                                                                                                                                                                                                                                                                          
0220000544852017307035253CCIS92331923300000000000001001CNM 659201701012018010102+00000005964002000000+0000000000000+0000000000000+0000000000000001000000003000000000000000000000000C00000000201601012901172Y 90                    0659  0000000                         480711                                                                                                                                                                                                                                                                                                                                         
0220000544852017307035253PCIS6970169700000000000000100041000000000000000000002016080120170801Midwifery JJJ                      123 Any Street                     Damascus          MD20872    000000000-0000003232000+0000000000000+0000000000000+0000000000000A57                                                                                                      02                                                                                                                                                    MD23374                                                                                 
0220000544852017307035253LCIS69701697000000000000001000999123 Any Street                     Damascus          MD20872    23374          MD000000000Israel Teitelbaum                  11301 Amherst Avenue, Suite 201    Silver Spring     MD                                                                                                                                                                                                                                                                                                                                                                          
0220000544852017307035253CCIS69701697000000000000001001CNM 659201701012017080108-00000032320002000000+0000000000000+0000000000000+0000000000000001000000003000000000000000000000000C00000000200708012908162Y 90                    0659  0000000                         208721                                                                                                                                                                                                                                                                                                                                         
0220000544852017307035253PCIS6554165540000000000000100041000000000000000000002017010120180101Midwifery KLKLJKHJHIUIOUOIPK       123 Any Street                     New York          NY10019    000000000+0000002461600+0000000000000+0000000000000+0000000000000A57                                                                                                      02                                                                                                                                                    NYEX-782761                                                                             
0220000544852017307035253LCIS65541655400000000000001006081123 Any Street                     New York          NY10019    EX-782761      NY000000000Israel Teitelbaum                  11301 Amherst Avenue, Suite 201    Silver Spring     MD                                                                                                                                                                                                                                                                                                                                                                          
0220000544852017307035253CCIS65541655400000000000001001CNM 659201701012018010106+00000024616002000000+0000000000000+0000000000000+0000000000000001000000003000000000000000000000000C00000000200501012901172Y 90                    0659  0000000                         100191                                                                                                                                                                                                                                                                                                                                         
0220000544852017307035253PCIS9418194180000000000000100041000000000000000000002016100120171001Ana PQR                            123 Any Street                     Brooklyn          NY11229    000000000-0000000006700+0000000000000+0000000000000+0000000000000A57                                                                                                      02                                                                                                                                                    NYEX-782761                                                                             
0220000544852017307035253LCIS94181941800000000000001005999123 Any Street                     Brooklyn          NY11229    EX-782761      NY000000000Israel Teitelbaum                  11301 Amherst Avenue, Suite 201    Silver Spring     MD                                                                                                                                                                                                                                                                                                                                                                          
0220000544852017307035253CCIS94181941800000000000001001CNM 659201701032017100108-00000000067002000000+0000000000000+0000000000000+0000000000000001000000003000000000000000000000000C00000000201610012910162Y 90                    0659  0000000                         112291                                                                                                                                                                                                                                                                                                                                         
0220000544852017307035253PCIS6287162870000000000000100041000000000000000000002016081220170812Lisa TRRTEYYTIU                    123 Any Street                     Knoxville         TN37921    000000000-0000003833300+0000000000000+0000000000000+0000000000000A57                                                                                                      02                                                                                                                                                    TN777739                                                                                
0220000544852017307035253LCIS62871628700000000000001000999123 Any Street                     Knoxville         TN37921    777739         TN000000000Israel Teitelbaum                  11301 Amherst Avenue, Suite 201    Silver Spring     MD                                                                                                                                                                                                                                                                                                                                                                          
0220000544852017307035253CCIS62871628700000000000001001CNM 659201701062017081208-00000038333002000000+0000000000000+0000000000000+0000000000000001000000003000000000000000000000000C00000000200308122908162Y 90                    0659  0000000                         379211                                                                                                                                                                                                                                                                                                                                         
0220000544852017307035253PCIS6287162870000000000000100041000000000000000000002016081220170106Lisa TRRTEYYTIU                    123 Any Street                     Knoxville         TN37921    000000000+0000008194400+0000000000000+0000000000000+0000000000000A57                                                                                                      02                                                                                                                                                    TN777739                                                                                
0220000544852017307035253LCIS62871628700000000000001000999123 Any Street                     Knoxville         TN37921    777739         TN000000000Israel Teitelbaum                  11301 Amherst Avenue, Suite 201    Silver Spring     MD                                                                                                                                                                                                                                                                                                                                                                          
0220000544852017307035253CCIS62871628700000000000001001CNM 659201701062017010606+00000081944002000000+0000000000000+0000000000000+0000000000000001000000003000000000000000000000000C00000000200308122908162Y 90                    0659  0000000                         379211                                                                                                                                                                                                                                                                                                                                         
0220000544852017307035253PCIS8017180170000000000000100041000000000000000000002016110120171101Brooke A. GGG                      123 Any Street                     Leonardtown       MD20650    000000000-0000003415800+0000000000000+0000000000000+0000000000000A57                                                                                                      02                                                                                                                                                    MD23374                                                                                 
0220000544852017307035253LCIS80171801700000000000001000999123 Any Street                     Leonardtown       MD20650    23374          MD000000000Israel Teitelbaum                  11301 Amherst Avenue, Suite 201    Silver Spring     MD                                                                                                                                                                                                                                                                                                                                                                          
0220000544852017307035253CCIS80171801700000000000001001CNM 659201701072017110108-00000034158002000000+0000000000000+0000000000000+0000000000000001000000003000000000000000000000000C00000000201111012911162Y 90                    0659  0000000                         206501                                                                                                                                                                                                                                                                                                                                         
0220000544852017307035253PCIS8017180170000000000000100041000000000000000000002016110120170107Brooke A. GGG                      123 Any Street                     Leonardtown       MD20650    000000000+0000005344500+0000000000000+0000000000000+0000000000000A57                                                                                                      02                                                                                                                                                    MD23374                                                                                 
0220000544852017307035253LCIS80171801700000000000001000999123 Any Street                     Leonardtown       MD20650    23374          MD000000000Israel Teitelbaum                  11301 Amherst Avenue, Suite 201    Silver Spring     MD                                                                                                                                                                                                                                                                                                                                                                          
0220000544852017307035253CCIS80171801700000000000001001CNM 659201701072017010706+00000053445002000000+0000000000000+0000000000000+0000000000000001000000003000000000000000000000000C00000000201111012911162Y 90                    0659  0000000                         206501                                                                                                                                                                                                                                                                                                                                         
0220000544852017307035253PCIS6250162500000000000000100041000000000000000000002016071020170710Ob/Gyn CCC                         123 Any Street                     St. Augustine     FL32086    000000000+0000000670800+0000000000000+0000000000000+0000000000000A57                                                                                                      02                                                                                                                                                    FLA262172                                                                               
0220000544852017307035253LCIS62501625000000000000001000311123 Any Street                     St. Augustine     FL32086    A262172        FL000000000Israel Teitelbaum                  11301 Amherst Avenue, Suite 201    Silver Spring     MD                                                                                                                                                                                                                                                                                                                                                                          
0220000544852017307035253CCIS62501625000000000000001001CNM 659201701112017071006+00000006708002000000+0000000000000+0000000000000+0000000000000000250000000750000000000000000000000C00000000200407252907162Y 90                    0659  0000000                         320861                                                                                                                                                                                                                                                                                                                                         
0220000544852017307035253PCIS8960189600000000000000100041000000000000000000002016091920170919Pavilion XXX                       123 Any Street                     Miami             FL33175    000000000-0000000365400+0000000000000+0000000000000+0000000000000A57                                                                                                      02                                                                                                                                                    FLA262172                                                                               
0220000544852017307035253LCIS89601896000000000000001000311123 Any Street                     Miami             FL33175    A262172        FL000000000Israel Teitelbaum                  11301 Amherst Avenue, Suite 201    Silver Spring     MD                                                                                                                                                                                                                                                                                                                                                                          
0220000544852017307035253CCIS89601896000000000000001001CNM 659201701112017091908-00000003654002000000+0000000000000+0000000000000+0000000000000001000000003000000000000000000000000C00000000200901232909162Y 90                    0659  0000000                         331751                                                                                                                                                                                                                                                                                                                                         
0220000544852017307035253PCIS9527195270000000000000100041000000000000000000002017011220180112Stand BBB                          123 Any Street                     Cantonment        FL32533    000000000+0000000579000+0000000000000+0000000000000+0000000000000A57                                                                                                      02                                                                                                                                                    FLA262172                                                                               
0220000544852017307035253LCIS95271952700000000000001000311123 Any Street                     Cantonment        FL32533    A262172        FL000000000Israel Teitelbaum                  11301 Amherst Avenue, Suite 201    Silver Spring     MD                                                                                                                                                                                                                                                                                                                                                                          
0220000544852017307035253CCIS95271952700000000000001001CNM 659201701122018011201+00000005790002000000+0000000000000+0000000000000+0000000000000000100000000300000000000000000000000C00000000201701122901172Y 90                    0659  0000000                         325331                                                                                                                                                                                                                                                                                                                                         
0220000544852017307035253PCIS6677166770000000000000101041000000000000000000002017011320180113Gail B. FDKMN HGFK                 123 Any Street                     Silver City       NM88061    000000000+0000003857500+0000000000000+0000000000000+0000000000000A57                                                                                                      02                                                                                                                                                    NM164766                                                                                
0220000544852017307035253LCIS66771667700000000000001014014123 Any Street                     Silver City       NM88061    164766         NM000000000Israel Teitelbaum                  11301 Amherst Avenue, Suite 201    Silver Spring     MD                                                                                                                                                                                                                                                                                                                                                                          
0220000544852017307035253CCIS66771667700000000000001001CNM 659201701132018011302+00000038575002000000+0000000000000+0000000000000+0000000000000001000000003000000000000000000000000C00000000200401132901172Y 90                    0659  0000000                         880611                                                                                                                                                                                                                                                                                                                                         
0220000544852017307035253PCIS8177181770000000000000101041000000000000000000002016060420170604Osei-Kwakye FFRVCDRGVBV            123 Any Street                     Brooklyn          NY11225    000000000+0000000204400+0000000000000+0000000000000+0000000000000A57                                                                                                      02                                                                                                                                                    NYEX-782761                                                                             
0220000544852017307035253LCIS81771817700000000000001005999123 Any Street                     Brooklyn          NY11225    EX-782761      NY000000000Israel Teitelbaum                  11301 Amherst Avenue, Suite 201    Silver Spring     MD                                                                                                                                                                                                                                                                                                                                                                          
0220000544852017307035253CCIS81771817700000000000001001CNM 659201701172017060406+00000002044002000000+0000000000000+0000000000000+0000000000000001300000003900000000000000000000000C00000000201207032906162Y 90                    0659  0000000                         112251                                                                                                                                                                                                                                                                                                                                         
0220000544852017307035253PCIS6946169460000000000000100041000000000000000000002016080120170801North WWW                          123 Any Street                     Gainesville       FL32605    000000000+0000000906500+0000000000000+0000000000000+0000000000000A57                                                                                                      02                                                                                                                                                    FLA262172                                                                               
0220000544852017307035253LCIS69461694600000000000001000311123 Any Street                     Gainesville       FL32605    A262172        FL000000000Israel Teitelbaum                  11301 Amherst Avenue, Suite 201    Silver Spring     MD                                                                                                                                                                                                                                                                                                                                                                          
0220000544852017307035253CCIS69461694600000000000001001CNM 659201701182017080106+00000009065002000000+0000000000000+0000000000000+0000000000000000250000000750000000000000000000000C00000000200708012908162Y 90                    0659  0000000                         326051                                                                                                                                                                                                                                                                                                                                         
0220000544852017307035253PCIS9372193720000000000000100041000000000000000000002016081520170815Adriana M. ABC                     123 Any Street                     Anchorage         AK99508    000000000-0000000198800+0000000000000+0000000000000+0000000000000A57                                                                                                      02                                                                                                                                                    AK19032                                                                                 
0220000544852017307035253LCIS93721937200000000000001000999123 Any Street                     Anchorage         AK99508    19032          AK000000000Israel Teitelbaum                  11301 Amherst Avenue, Suite 201    Silver Spring     MD                                                                                                                                                                                                                                                                                                                                                                          
0220000544852017307035253CCIS93721937200000000000001001CNM 659201701182017081508-00000001988002000000+0000000000000+0000000000000+0000000000000001000000003000000000000000000000000C00000000201608152908162Y 90                    0659  0000000                         995081                                                                                                                                                                                                                                                                                                                                         
0220000544852017307035253PCIS8734187340000000000000100041000000000000000000002016013020170130Koolau POPOPOPOPOP                 123 Any Street                     Kailua            HI96748    000000000+0000000007500+0000000000000+0000000000000+0000000000000A57                                                                                                      02                                                                                                                                                    HI327504                                                                                
0220000544852017307035253LCIS87341873400000000000001000999123 Any Street                     Kailua            HI96748    327504         HI000000000Israel Teitelbaum                  11301 Amherst Avenue, Suite 201    Silver Spring     MD                                                                                                                                                                                                                                                                                                                                                                          
0220000544852017307035253CCIS87341873400000000000001001CNM 659201701192017013006+00000000075002000000+0000000000000+0000000000000+0000000000000001000000003000000000000000000000000C00000000201406012901162Y 90                    0659  0000000                         967481                                                                                                                                                                                                                                                                                                                                         
0220000544852017307035253PCIS6946169460000000000000100041000000000000000000002016080120170801North WWW                          123 Any Street                     Gainesville       FL32605    000000000-0000000031500+0000000000000+0000000000000+0000000000000A57                                                                                                      02                                                                                                                                                    FLA262172                                                                               
0220000544852017307035253LCIS69461694600000000000001000311123 Any Street                     Gainesville       FL32605    A262172        FL000000000Israel Teitelbaum                  11301 Amherst Avenue, Suite 201    Silver Spring     MD                                                                                                                                                                                                                                                                                                                                                                          
0220000544852017307035253CCIS69461694600000000000001001CNM 659201701192017080106-00000000315002000000+0000000000000+0000000000000+0000000000000000250000000750000000000000000000000C00000000200708012908162Y 90                    0659  0000000                         326051                                                                                                                                                                                                                                                                                                                                         
0220000544852017307035253PCIS9531195310000000000000100041000000000000000000002017012020180120Clarissa III                       123 Any Street                     Miami             FL33173    000000000+0000000226000+0000000000000+0000000000000+0000000000000A57                                                                                                      02                                                                                                                                                    FLA262172                                                                               
0220000544852017307035253LCIS95311953100000000000001000311123 Any Street                     Miami             FL33173    A262172        FL000000000Israel Teitelbaum                  11301 Amherst Avenue, Suite 201    Silver Spring     MD                                                                                                                                                                                                                                                                                                                                                                          
0220000544852017307035253CCIS95311953100000000000001001CNM 659201701202018012001+00000002260002000000+0000000000000+0000000000000+0000000000000000250000000750000000000000000000000C00000000201701202901172Y 90                    0659  0000000                         331731                                                                                                                                                                                                                                                                                                                                         
0220000544852017307035253PCIS7101171010000000000000101041000000000000000000002017012320180123Martha M. QQQ                      123 Any Street                     Las Vegas         NV89146    000000000+0000000783300+0000000000000+0000000000000+0000000000000A57                                                                                                      02                                                                                                                                                    NV517930                                                                                
0220000544852017307035253LCIS71011710100000000000001000999123 Any Street                     Las Vegas         NV89146    517930         NV000000000Israel Teitelbaum                  11301 Amherst Avenue, Suite 201    Silver Spring     MD                                                                                                                                                                                                                                                                                                                                                                          
0220000544852017307035253CCIS71011710100000000000001001CNM 659201701232018012302+00000007833002000000+0000000000000+0000000000000+0000000000000001000000003000000000000000000000000C00000000200701232901172Y 90                    0659  0000000                         891461                                                                                                                                                                                                                                                                                                                                         
0220000544852017307035253PCIS9524195240000000000000100041000000000000000000002017012320180123Elaine I. MKMLKHGHGF               123 Any Street                     Binghamton        NY13905    000000000+0000000314700+0000000000000+0000000000000+0000000000000A57                                                                                                      02                                                                                                                                                    NYEX-782761                                                                             
0220000544852017307035253LCIS95241952400000000000001005999123 Any Street                     Binghamton        NY13905    EX-782761      NY000000000Israel Teitelbaum                  11301 Amherst Avenue, Suite 201    Silver Spring     MD                                                                                                                                                                                                                                                                                                                                                                          
0220000544852017307035253CCIS95241952400000000000001001CNM 659201701232018012301+00000003147002000000+0000000000000+0000000000000+0000000000000001000000003000000000000000000000000C00000000201701232901172Y 90                    0659  0000000                         139051                                                                                                                                                                                                                                                                                                                                         
0220000544852017307035253PCIS8632186320000000000000101041000000000000000000002017012320180123Jennifer DEF                       123 Any Street                     Anchorage         AK99501    000000000+0000002621800+0000000000000+0000000000000+0000000000000A57                                                                                                      02                                                                                                                                                    AK19032                                                                                 
0220000544852017307035253LCIS86321863200000000000001000999123 Any Street                     Anchorage         AK99501    19032          AK000000000Israel Teitelbaum                  11301 Amherst Avenue, Suite 201    Silver Spring     MD                                                                                                                                                                                                                                                                                                                                                                          
0220000544852017307035253CCIS86321863200000000000001001CNM 659201701232018012302+00000026218002000000+0000000000000+0000000000000+0000000000000001000000003000000000000000000000000C00000000201401232901172Y 90                    0659  0000000                         995011                                                                                                                                                                                                                                                                                                                                         
0220000544852017307035253PCIS8962189620000000000000101041000000000000000000002017012520180125Risa L. JKL                        123 Any Street                     New York          NY10021    000000000+0000001655200+0000000000000+0000000000000+0000000000000A57                                                                                                      02                                                                                                                                                    NYEX-782761                                                                             
0220000544852017307035253LCIS89621896200000000000001006081123 Any Street                     New York          NY10021    EX-782761      NY000000000Israel Teitelbaum                  11301 Amherst Avenue, Suite 201    Silver Spring     MD                                                                                                                                                                                                                                                                                                                                                                          
0220000544852017307035253CCIS89621896200000000000001001CNM 659201701252018012502+00000016552002000000+0000000000000+0000000000000+0000000000000001000000003000000000000000000000000C00000000201501252901172Y 90                    0659  0000000                         100211                                                                                                                                                                                                                                                                                                                                         
0220000544852017307035253PCIS9538195380000000000000100041000000000000000000002017012520180125Kimberly KJHJFGDVBVB N             123 Any Street                     Killeen           TX76549    000000000+0000000050000+0000000000000+0000000000000+0000000000000A57                                                                                                      02                                                                                                                                                    TX1178990                                                                               
0220000544852017307035253LCIS95381953800000000000001011461123 Any Street                     Killeen           TX76549    1178990        TX000000000Israel Teitelbaum                  11301 Amherst Avenue, Suite 201    Silver Spring     MD                                                                                                                                                                                                                                                                                                                                                                          
0220000544852017307035253CCIS95381953800000000000001001CNM 659201701252018012501+00000000500002000000+0000000000000+0000000000000+0000000000000001000000003000000000000000000000000C00000000201701252901172Y 90                    0659  0000000                         765491                                                                                                                                                                                                                                                                                                                                         
0220000544852017307035254PCIS8964189640000000000000101041000000000000000000002017012820180128Christina A. HGFIFYUKVJ            123 Any Street                     Lynwood           CA90262    000000000+0000000765400+0000000000000+0000000000000+0000000000000A57                                                                                                      02                                                                                                                                                    CA0C46079                                                                               
0220000544852017307035254LCIS89641896400000000000001000999123 Any Street                     Lynwood           CA90262    0C46079        CA000000000Israel Teitelbaum                  11301 Amherst Avenue, Suite 201    Silver Spring     MD                                                                                                                                                                                                                                                                                                                                                                          
0220000544852017307035254CCIS89641896400000000000001001CNM 659201701282018012802+00000007654002000000+0000000000000+0000000000000+0000000000000001000000003000000000000000000000000C00000000201501282901172Y 90                    0659  0000000                         902621                                                                                                                                                                                                                                                                                                                                         
0220000544852017307035254PCIS8734187340000000000000101041000000000000000000002017013020180130Koolau POPOPOPOPOP                 123 Any Street                     Kailua            HI96748    000000000+0000004666200+0000000000000+0000000000000+0000000000000A57                                                                                                      02                                                                                                                                                    HI327504                                                                                
0220000544852017307035254LCIS87341873400000000000001000999123 Any Street                     Kailua            HI96748    327504         HI000000000Israel Teitelbaum                  11301 Amherst Avenue, Suite 201    Silver Spring     MD                                                                                                                                                                                                                                                                                                                                                                          
0220000544852017307035254CCIS87341873400000000000001001CNM 659201701302018013002+00000046662002000000+0000000000000+0000000000000+0000000000000001000000003000000000000000000000000C00000000201406012901172Y 90                    0659  0000000                         967481                                                                                                                                                                                                                                                                                                                                         
0220000544852017307035254PCIS9246192460000000000000101041000000000000000000002017013020180130Central NINUBJH                    123 Any Street                     New York          NY10023    000000000+0000003540900+0000000000000+0000000000000+0000000000000A57                                                                                                      02                                                                                                                                                    NYEX-782761                                                                             
0220000544852017307035254LCIS92461924600000000000001006081123 Any Street                     New York          NY10023    EX-782761      NY000000000Israel Teitelbaum                  11301 Amherst Avenue, Suite 201    Silver Spring     MD                                                                                                                                                                                                                                                                                                                                                                          
0220000544852017307035254CCIS92461924600000000000001001CNM 659201701302018013002+00000035409002000000+0000000000000+0000000000000+0000000000000001000000003000000000000000000000000C00000000201603012901172Y 90                    0659  0000000                         100231                                                                                                                                                                                                                                                                                                                                         
0220000544852017307035254PCIS8734187340000000000000100041000000000000000000002017013020180130Koolau POPOPOPOPOP                 123 Any Street                     Kailua            HI96748    000000000+0000000271200+0000000000000+0000000000000+0000000000000A57                                                                                                      02                                                                                                                                                    HI327504                                                                                
0220000544852017307035254LCIS87341873400000000000001000999123 Any Street                     Kailua            HI96748    327504         HI000000000Israel Teitelbaum                  11301 Amherst Avenue, Suite 201    Silver Spring     MD                                                                                                                                                                                                                                                                                                                                                                          
0220000544852017307035254CCIS87341873400000000000001001CNM 659201701302018013006+00000002712002000000+0000000000000+0000000000000+0000000000000001000000003000000000000000000000000C00000000201406012901172Y 90                    0659  0000000                         967481                                                                                                                                                                                                                                                                                                                                         
0220000544852017307035254PCIS7110171100000000000000101041000000000000000000002017020120180201Rachel A. PPP                      123 Any Street                     Glastonbury       CT06033    000000000+0000000301500+0000000000000+0000000000000+0000000000000A57                                                                                                      02                                                                                                                                                    CT002239748                                                                             
0220000544852017307035254LCIS71101711000000000000001000233123 Any Street                     Glastonbury       CT06033    002239748      CT000000000Israel Teitelbaum                  11301 Amherst Avenue, Suite 201    Silver Spring     MD                                                                                                                                                                                                                                                                                                                                                                          
0220000544852017307035254CCIS71101711000000000000001001CNM 659201702012018020102+00000003015002000000+0000000000000+0000000000000+0000000000000000100000000300000000000000000000000C00000000200802012902172Y 90                    0659  0000000                         060331                                                                                                                                                                                                                                                                                                                                         
0220000544852017307035254PCIS8970189700000000000000101041000000000000000000002017020120180201Barbara MNJHBH                     123 Any Street                     Lake Worth        FL33461    000000000+0000001657300+0000000000000+0000000000000+0000000000000A57                                                                                                      02                                                                                                                                                    FLA262172                                                                               
0220000544852017307035254LCIS89701897000000000000001000311123 Any Street                     Lake Worth        FL33461    A262172        FL000000000Israel Teitelbaum                  11301 Amherst Avenue, Suite 201    Silver Spring     MD                                                                                                                                                                                                                                                                                                                                                                          
0220000544852017307035254CCIS89701897000000000000001001CNM 659201702012018020102+00000016573002000000+0000000000000+0000000000000+0000000000000000250000000750000000000000000000000C00000000201502012902172Y 90                    0659  0000000                         334611                                                                                                                                                                                                                                                                                                                                         
0220000544852017307035254PCIS8965189650000000000000101041000000000000000000002017020220180202Zhaleh POOUITRFBVMJ                123 Any Street                     Maywood           CA90270    000000000+0000000688800+0000000000000+0000000000000+0000000000000A57                                                                                                      02                                                                                                                                                    CA0C46079                                                                               
0220000544852017307035254LCIS89651896500000000000001000999123 Any Street                     Maywood           CA90270    0C46079        CA000000000Israel Teitelbaum                  11301 Amherst Avenue, Suite 201    Silver Spring     MD                                                                                                                                                                                                                                                                                                                                                                          
0220000544852017307035254CCIS89651896500000000000001001LNB 659201702022018020202+00000006888002000000+0000000000000+0000000000000+0000000000000001000000003000000000000000000000000C00000000201502022902172Y 90                    0659  0000000                         902701                                                                                                                                                                                                                                                                                                                                         
0220000544852017307035254PCIS8262182620000000000000102041000000000000000000002017020320180203The EEE                            123 Any Street                     Missoula          MT59803    000000000+0000002121700+0000000000000+0000000000000+0000000000000A57                                                                                                      02                                                                                                                                                    MT33372                                                                                 
0220000544852017307035254LCIS82621826200000000000001000999123 Any Street                     Missoula          MT59803    33372          MT000000000Israel Teitelbaum                  11301 Amherst Avenue, Suite 201    Silver Spring     MD                                                                                                                                                                                                                                                                                                                                                                          
0220000544852017307035254CCIS82621826200000000000001001CNM 659201702032018020302+00000021217002000000+0000000000000+0000000000000+0000000000000000100000000300000000000000000000000C00000000201209012902172Y 90                    0659  0000000                         598031                                                                                                                                                                                                                                                                                                                                         
0220000544852017307035254PCIS9533195330000000000000100041000000000000000000002017020620170806Nina RDNKOPKKJGBVCFDR              123 Any Street                     Westlake          OH44145    000000000+0000000150000+0000000000000+0000000000000+0000000000000A57                                                                                                      02                                                                                                                                                    OH698197                                                                                
0220000544852017307035254LCIS95331953300000000000001000999123 Any Street                     Westlake          OH44145    698197         OH000000000Israel Teitelbaum                  11301 Amherst Avenue, Suite 201    Silver Spring     MD                                                                                                                                                                                                                                                                                                                                                                          
0220000544852017307035254CCIS95331953300000000000001001CNM 659201702062017080601+00000001500002000000+0000000000000+0000000000000+0000000000000001000000003000000000000000000000000C00000000201702062902172Y 90                    0659  0000000                         441451                                                                                                                                                                                                                                                                                                                                         
0220000544852017307035254PCIS9534195340000000000000100041000000000000000000002017020620180206Kristi KLHFDDT                     123 Any Street                     Taylorsville      UT84129    000000000+0000000050000+0000000000000+0000000000000+0000000000000A57                                                                                                      02                                                                                                                                                    UT411279                                                                                
0220000544852017307035254LCIS95341953400000000000001000999123 Any Street                     Taylorsville      UT84129    411279         UT000000000Israel Teitelbaum                  11301 Amherst Avenue, Suite 201    Silver Spring     MD                                                                                                                                                                                                                                                                                                                                                                          
0220000544852017307035254CCIS95341953400000000000001001CNM 659201702062018020601+00000000500002000000+0000000000000+0000000000000+0000000000000001000000003000000000000000000000000C00000000201702062902172Y 90                    0659  0000000                         841291                                                                                                                                                                                                                                                                                                                                         
0220000544852017307035254PCIS9250192500000000000000101041000000000000000000002017020820180208Jacqueline L. YZA                  123 Any Street                     New York          NY10011    000000000+0000000534600+0000000000000+0000000000000+0000000000000A57                                                                                                      02                                                                                                                                                    NYEX-782761                                                                             
0220000544852017307035254LCIS92501925000000000000001006081123 Any Street                     New York          NY10011    EX-782761      NY000000000Israel Teitelbaum                  11301 Amherst Avenue, Suite 201    Silver Spring     MD                                                                                                                                                                                                                                                                                                                                                                          
0220000544852017307035254CCIS92501925000000000000001001CNM 659201702082018020802+00000005346002000000+0000000000000+0000000000000+0000000000000001000000003000000000000000000000000C00000000201602082902172Y 90                    0659  0000000                         100111                                                                                                                                                                                                                                                                                                                                         
0220000544852017307035254PCIS9248192480000000000000101041000000000000000000002017021120180211Beth C. STU                        123 Any Street                     Southampton       NY11968    000000000+0000000330000+0000000000000+0000000000000+0000000000000A57                                                                                                      02                                                                                                                                                    NYEX-782761                                                                             
0220000544852017307035254LCIS92481924800000000000001005999123 Any Street                     Southampton       NY11968    EX-782761      NY000000000Israel Teitelbaum                  11301 Amherst Avenue, Suite 201    Silver Spring     MD                                                                                                                                                                                                                                                                                                                                                                          
0220000544852017307035254CCIS92481924800000000000001001CNM 659201702112018021102+00000003300002000000+0000000000000+0000000000000+0000000000000001000000003000000000000000000000000C00000000201602112902172Y 90                    0659  0000000                         119681                                                                                                                                                                                                                                                                                                                                         
0220000544852017307035254PCIS8970189700000000000000100041000000000000000000002017020120180201Barbara OUIYUYRY                   123 Any Street                     Lake Worth        FL33461    000000000+0000000995500+0000000000000+0000000000000+0000000000000A57                                                                                                      02                                                                                                                                                    FLA262172                                                                               
0220000544852017307035254LCIS89701897000000000000001000311123 Any Street                     Lake Worth        FL33461    A262172        FL000000000Israel Teitelbaum                  11301 Amherst Avenue, Suite 201    Silver Spring     MD                                                                                                                                                                                                                                                                                                                                                                          
0220000544852017307035254CCIS89701897000000000000001001CNM 659201702132018020106+00000009955002000000+0000000000000+0000000000000+0000000000000000250000000750000000000000000000000C00000000201502012902172Y 90                    0659  0000000                         334611                                                                                                                                                                                                                                                                                                                                         
0220000544852017307035254PCIS8532185320000000000000101041000000000000000000002016110220171102Chena OIOUKJMNHH                   123 Any Street                     Fairbanks         AK99701    000000000-0000001427900+0000000000000+0000000000000+0000000000000A57                                                                                                      02                                                                                                                                                    AK19032                                                                                 
0220000544852017307035254LCIS85321853200000000000001000999123 Any Street                     Fairbanks         AK99701    19032          AK000000000Israel Teitelbaum                  11301 Amherst Avenue, Suite 201    Silver Spring     MD                                                                                                                                                                                                                                                                                                                                                                          
0220000544852017307035254CCIS85321853200000000000001001CNM 659201702132017110206-00000014279002000000+0000000000000+0000000000000+0000000000000001000000003000000000000000000000000C00000000201309132911162Y 90                    0659  0000000                         997011                                                                                                                                                                                                                                                                                                                                         
0220000544852017307035254PCIS9251192510000000000000101041000000000000000000002017021420180214Gladys MMM                         123 Any Street                     Brooklyn          NY11226    000000000+0000000330000+0000000000000+0000000000000+0000000000000A57                                                                                                      02                                                                                                                                                    NYEX-782761                                                                             
0220000544852017307035254LCIS92511925100000000000001005999123 Any Street                     Brooklyn          NY11226    EX-782761      NY000000000Israel Teitelbaum                  11301 Amherst Avenue, Suite 201    Silver Spring     MD                                                                                                                                                                                                                                                                                                                                                                          
0220000544852017307035254CCIS92511925100000000000001001CNM 659201702142018021402+00000003300002000000+0000000000000+0000000000000+0000000000000001000000003000000000000000000000000C00000000201602142902172Y 90                    0659  0000000                         112261                                                                                                                                                                                                                                                                                                                                         
0220000544852017307035254PCIS6499164990000000000000100041000000000000000000002016021720170517Park PLOJKMN MBNUGTGCH             123 Any Street                     Brooklyn          NY11218    000000000+0000005308700+0000000000000+0000000000000+0000000000000A57                                                                                                      02                                                                                                                                                    NYEX-782761                                                                             
0220000544852017307035254LCIS64991649900000000000001005999123 Any Street                     Brooklyn          NY11218    EX-782761      NY000000000Israel Teitelbaum                  11301 Amherst Avenue, Suite 201    Silver Spring     MD                                                                                                                                                                                                                                                                                                                                                                          
0220000544852017307035254CCIS64991649900000000000001001CNM 659201702172017051706+00000053087002000000+0000000000000+0000000000000+0000000000000001000000003000000000000000000000000C00000000200410182902162Y 90                    0659  0000000                         112181                                                                                                                                                                                                                                                                                                                                         
0220000544852017307035254PCIS9160191600000000000000100041000000000000000000002016101520171015Sadiah LLL                         123 Any Street                     Brooklyn          NY11220    000000000+0000000090100+0000000000000+0000000000000+0000000000000A57                                                                                                      02                                                                                                                                                    NYEX-782761                                                                             
0220000544852017307035254LCIS91601916000000000000001005999123 Any Street                     Brooklyn          NY11220    EX-782761      NY000000000Israel Teitelbaum                  11301 Amherst Avenue, Suite 201    Silver Spring     MD                                                                                                                                                                                                                                                                                                                                                                          
0220000544852017307035254CCIS91601916000000000000001001CNM 659201702202017101506+00000000901002000000+0000000000000+0000000000000+0000000000000001000000003000000000000000000000000C00000000201510152910162Y 90                    0659  0000000                         112201                                                                                                                                                                                                                                                                                                                                         
0220000544852017307035254PCIS6499164990000000000000100041000000000000000000002016021720170517Park PLOJKMN MBNUGTGCH             123 Any Street                     Brooklyn          NY11218    000000000-0000000846500+0000000000000+0000000000000+0000000000000A57                                                                                                      02                                                                                                                                                    NYEX-782761                                                                             
0220000544852017307035254LCIS64991649900000000000001005999123 Any Street                     Brooklyn          NY11218    EX-782761      NY000000000Israel Teitelbaum                  11301 Amherst Avenue, Suite 201    Silver Spring     MD                                                                                                                                                                                                                                                                                                                                                                          
0220000544852017307035254CCIS64991649900000000000001001CNM 659201702212017051706-00000008465002000000+0000000000000+0000000000000+0000000000000001000000003000000000000000000000000C00000000200410182902162Y 90                    0659  0000000                         112181                                                                                                                                                                                                                                                                                                                                         
0220000544852017307035254PCIS9529195290000000000000100041000000000000000000002017022220180222Tania UUU                          123 Any Street                     Brooklyn          NY11226    000000000+0000000050000+0000000000000+0000000000000+0000000000000A57                                                                                                      02                                                                                                                                                    NYEX-782761                                                                             
0220000544852017307035254LCIS95291952900000000000001005999123 Any Street                     Brooklyn          NY11226    EX-782761      NY000000000Israel Teitelbaum                  11301 Amherst Avenue, Suite 201    Silver Spring     MD                                                                                                                                                                                                                                                                                                                                                                          
0220000544852017307035254CCIS95291952900000000000001001CNB 659201702222018022201+00000000500002000000+0000000000000+0000000000000+0000000000000001000000003000000000000000000000000C00000000201702222902172Y 90                    0659  0000000                         112261                                                                                                                                                                                                                                                                                                                                         
0220000544852017307035254PCIS9144191440000000000000100041000000000000000000002015111220170331Jackie RRR                         123 Any Street                     Brooklyn          NY11229    000000000+0000000005100+0000000000000+0000000000000+0000000000000A57                                                                                                      02                                                                                                                                                    NYEX-782761                                                                             
0220000544852017307035254LCIS91441914400000000000001005999123 Any Street                     Brooklyn          NY11229    EX-782761      NY000000000Israel Teitelbaum                  11301 Amherst Avenue, Suite 201    Silver Spring     MD                                                                                                                                                                                                                                                                                                                                                                          
0220000544852017307035254CCIS91441914400000000000001001CNM 659201702222017033106+00000000051002000000+0000000000000+0000000000000+0000000000000001000000003000000000000000000000000C00000000201511122911152Y 90                    0659  0000000                         112291                                                                                                                                                                                                                                                                                                                                         
0220000544852017307035254PCIS9539195390000000000000100041000000000000000000002017022220180222Caryne GHI                         123 Any Street                     Brooklyn          NY11236    000000000+0000000050000+0000000000000+0000000000000+0000000000000A57                                                                                                      02                                                                                                                                                    NYEX-782761                                                                             
0220000544852017307035254LCIS95391953900000000000001005999123 Any Street                     Brooklyn          NY11236    EX-782761      NY000000000Israel Teitelbaum                  11301 Amherst Avenue, Suite 201    Silver Spring     MD                                                                                                                                                                                                                                                                                                                                                                          
0220000544852017307035254CCIS95391953900000000000001001CNM 659201702222018022201+00000000500002000000+0000000000000+0000000000000+0000000000000001000000003000000000000000000000000C00000000201702222902172Y 90                    0659  0000000                         112361                                                                                                                                                                                                                                                                                                                                         
0220000544852017307035254PCIS9156191560000000000000100041000000000000000000002015110920170326Isamar FFF                         123 Any Street                     Bronx             NY10455    000000000+0000000004400+0000000000000+0000000000000+0000000000000A57                                                                                                      02                                                                                                                                                    NYEX-782761                                                                             
